:100000000C9434000C9451000C9451000C94510049
:100010000C9451000C9451000C9451000C9451001C
:100020000C9451000C9451000C9451000C9453000A
:100030000C9451000C9451000C9451000C945100FC
:100040000C9451000C9451000C9451000C945100EC
:100050000C9451000C9451000C9451000C945100DC
:100060000C9451000C94510011241FBECFEFD8E026
:10007000DEBFCDBF11E0A0E0B1E0ECECF1E002C0EA
:1000800005900D92A430B107D9F721E0A4E0B1E0CA
:1000900001C01D92AC30B207E1F70E94DC000C9465
:1000A000E4000C9400001F921FB61F9211242F939E
:1000B0003F938F939F93AF93BF938091080190914B
:1000C0000901A0910A01B0910B010196A11DB11D7A
:1000D0008093080190930901A0930A01B0930B014A
:1000E000209104013091050180910801909109014E
:1000F000A0910A01B0910B0182179307A105B105E8
:10010000B0F08091080190910901A0910A01B0918D
:100110000B012091000130910101820F931F9093F8
:1001200005018093040185B194E0892785B9209168
:100130000601309107018091080190910901A09179
:100140000A01B0910B0182179307A105B105B8F020
:100150008091080190910901A0910A01B0910B01D1
:100160002091020130910301820F931F90930701A8
:1001700080930601299A80E18A95F1F72998BF9129
:10018000AF919F918F913F912F911F901FBE1F9014
:10019000189510928000E1E8F0E088E0808389EF14
:1001A00090E0909389008093880082E080936F00B4
:1001B000808183608083089584B1876084B92898A2
:0C01C0000E94C9007894FFCFF894FFCF94
:0401CC008813010093
:00000001FF
