:100000000C9434000C9451000C9451000C94510049
:100010000C9451000C9451000C9451000C9451001C
:100020000C9451000C9451000C9451000C9453000A
:100030000C9451000C9451000C9451000C945100FC
:100040000C9451000C9451000C9451000C945100EC
:100050000C9451000C9451000C9451000C945100DC
:100060000C9451000C94510011241FBECFEFD8E026
:10007000DEBFCDBF11E0A0E0B1E0EEEEF1E002C0E6
:1000800005900D92AE30B107D9F721E0AEE0B1E0B6
:1000900001C01D92A731B207E1F70E94D4000C9471
:1000A000F5000C9400001F921FB61F9211242F938D
:1000B0003F938F939F93AF93BF9380911301909140
:1000C0001401A0911501B09116010196A11DB11D59
:1000D0008093130190931401A0931501B09316011E
:1000E00020910E0130910F01809113019091140124
:1000F000A0911501B091160182179307A105B105D2
:10010000B8F08091130190911401A0911501B09164
:1001100016012091000130910101820F931F9093ED
:100120000F0180930E018091040181958093040159
:1001300020911001309111018091130190911401CF
:10014000A0911501B091160182179307A105B10581
:10015000D0F08091130190911401A0911501B091FC
:1001600016012091020130910301820F931F909399
:100170001101809310019091120180910401890F67
:10018000877080931201BF91AF919F918F913F91A2
:100190002F911F901FBE1F901895E82FF0E0EB5F86
:1001A000FE4F808185B9089584B18F6084B985B18F
:1001B000807F85B98091810088608093810089EF7C
:1001C00090E0909389008093880080916F00826016
:1001D00080936F0080918100836080938100789488
:0E01E000809112010E94CD00FBCFF894FFCF5A
:0E01EE00D007050001050406020A08090100F9
:00000001FF
